S0170000484F4D455F5341464554595F4156522E7372656371
S11300000C9434000C947D000C9451000C94510019
S11300100C9451000C9451000C9451000C94510018
S11300200C9451000C9451000C9451000C94510008
S11300300C9451000C9451000C9451000C945100F8
S11300400C9451000C9451000C9451000C945100E8
S11300500C9451000C9451000C9451000C945100D8
S11300600C9451000C94510011241FBECFEFD8E022
S1130070DEBFCDBF11E0A0E0B1E0ECE2F5E002C0EC
S113008005900D92AE32B107D9F721E0AEE2B1E0AE
S113009001C01D92AF32B207E1F70E9420010C9417
S11300A094020C940000ECE7F0E08081806480838B
S11300B080818F778083EAE7F0E0808180688083A5
S11300C080818760808308958770ECE7F0E09081F9
S11300D0987F892B8083EAE7F0E0808180648083C5
S11300E080917A0086FDFCCF209178008091790080
S11300F090E0982F8827822B08951F920F920FB6B5
S11301000F9211248F9381E080932E018F910F9091
S11301100FBE0F901F90189584B1816084B984B18B
S1130120826084B985B18E7F85B985B18D7F85B9AB
S113013008958AB18B7F8AB98BB18B7F8BB9E9E63D
S1130140F0E08081836080838DB381608DBB0895EE
S113015080E00E946400BC0180E090E00E9499016C
S113016023E23BED49EF5EE30E94FF010E9463013D
S11301706D337105BCF085B1826085B985B181604C
S113018085B980E091E00E9446012FEF83ED90E372
S1130190215080409040E1F700C0000085B18E7F7F
S11301A085B9089585B18D7F85B9089580912E0113
S11301B0882309F444C010922E012FEF80E792E0C7
S11301C0215080409040E1F700C000004A9B37C0B6
S11301D08DE091E00E94460185B1826085B985B1C8
S11301E0816085B92FEF89E698E1215080409040E5
S11301F0E1F700C0000085B18E7F85B92FEF83EC55
S113020099E0215080409040E1F700C0000085B1A2
S1130210816085B92FEF89E698E1215080409040B4
S1130220E1F700C0000085B18E7F85B92FEF87EA22
S113023091E6215080409040E1F700C0000008950D
S11302400E948C000E9453000E9453010E94990056
S113025078942FEF33EB84EC94E0215030408040CD
S11302609040D9F700C0000082E291E00E9446016C
S11302700E94D6000E94A8002FEF33EC89E02150A1
S113028030408040E1F700C00000F2CFFC0107C01D
S11302909091C00095FFFCCF31968093C600808179
S11302A08111F6CF08951092C50087E68093C400AB
S11302B0E1ECF0E0808188608083E2ECF0E0808112
S11302C08660808308950E946A016894B1110C9439
S11302D0F90108950E94DE0188F09F5798F0B92F24
S11302E09927B751B0F0E1F0660F771F881F991F67
S11302F01AF0BA95C9F714C0B13091F00E94F80110
S1130300B1E008950C94F801672F782F8827B85F1F
S113031039F0B93FCCF3869577956795B395D9F7BE
S11303203EF490958095709561957F4F8F4F9F4FC8
S11303300895E89409C097FB3EF4909580957095D4
S113034061957F4F8F4F9F4F9923A9F0F92F96E91D
S1130350BB279395F695879577956795B795F11192
S1130360F8CFFAF4BB0F11F460FF1BC06F5F7F4F2F
S11303708F4F9F4F16C0882311F096E911C0772341
S113038021F09EE8872F762F05C0662371F096E84A
S1130390862F70E060E02AF09A95660F771F881F19
S11303A0DAF7880F9695879597F9089557FD905831
S11303B0440F551F59F05F3F71F04795880F97FB25
S11303C0991F61F09F3F79F08795089512161306DF
S11303D01406551FF2CF4695F1DF08C0161617060E
S11303E01806991FF1CF8695710561050894089543
S11303F0E894BB2766277727CB0197F908950E94D5
S113040012020C9483020E94750238F00E947C024E
S113041020F0952311F00C946C020C9472021124B8
S11304200C94F9010E94D60170F3959FC1F3950FC6
S113043050E0551F629FF001729FBB27F00DB11D64
S1130440639FAA27F00DB11DAA1F649F6627B00DF4
S1130450A11D661F829F2227B00DA11D621F739FDD
S1130460B00DA11D621F839FA00D611D221F749FEB
S11304703327A00D611D231F849F600D211D822F32
S1130480762F6A2F11249F5750409AF0F1F0882359
S11304904AF0EE0FFF1FBB1F661F771F881F915086
S11304A05040A9F79E3F510580F00C946C020C94C7
S11304B0F9015F3FE4F3983ED4F386957795679509
S11304C0B795F795E7959F5FC1F7FE2B880F911DB0
S11304D09695879597F9089597F99F6780E870E056
S11304E060E008959FEF80EC089500240A941616A6
S11304F0170618060906089500240A94121613060E
S1130500140605060895092E0394000C11F488239B
S113051052F0BB0F40F4BF2B11F460FF04C06F5FB7
S10F05207F4F8F4F9F4F0895F894FFCF3A
S113052C4649524520414C455254210A00494E54E7
S113053C525553494F4E2044455445435445442148
S111054C0A0053595354454D204F4E0A0000E7
S9030000FC
