:100000000C94EB000C9408010C9408010C9408016A
:100010000C9408010C9408010C9408010C9408013C
:100020000C9408010C9408010C9408010C9408012C
:100030000C9408010C9408010C9408010C9408011C
:100040000C9408010C9408010C9408010C9408010C
:100050000C9408010C9408010C9408010C940801FC
:100060000C9408010C940801B607BE07C707E10706
:10007000E107E107E107E107E107E107E107E10740
:10008000E107E107E107D007E107E107E107D90749
:10009000E107E107E107E107E107E107E107E10720
:1000A000E107E107E107E107BD06C606D006DA066B
:1000B000E406ED06F80602070C0715071F072907D7
:1000C00032073C0746074E07570761076A07730761
:1000D0007E07880791079A07A307AC0700407A10AC
:1000E000F35A00A0724E18090010A5D4E80000E8E9
:1000F0007648170000E40B54020000CA9A3B000047
:1001000000E1F505000080969800000040420F00D5
:100110000000A08601000000102700000000E80396
:10012000000000006400000000000A000000000061
:100130000100000000002C76D888DC674F0823DF20
:10014000C1DFAE59E1B1B796E5E3E453C63AE651F3
:10015000997696E8E6C28426EB898C9B62ED407C1A
:100160006FFCEFBC9C9F40F2BAA56FA5F490055AB6
:100170002AF75C936B6CF9676DC11BFCE0E40D47DB
:10018000FEF520E6B500D0ED902E030094357705FE
:100190000080841E080000204E0A000000C80C33B6
:1001A0003333330F986E12831141EF8D2114893B45
:1001B000E65516CFFEE6DB18D1844B381BF77C1DC5
:1001C000901DA4BBE424203284725E228100C9F118
:1001D00024ECA1E53D2711241FBECFEFD8E0DEBF00
:1001E000CDBF11E0A0E0B1E0E6EEFAE102C005907B
:1001F0000D92A236B107D9F721E0A2E6B1E001C025
:100200001D92A63AB207E1F70E9421050C94710DE8
:100210000C9400001092B90088E48093B80008950F
:1002200084EA8093BC008091BC008823E4F70895A1
:1002300084E98093BC0085E38A95F1F70000089576
:100240008093BB0084E88093BC008091BC0088232D
:10025000E4F7089584EC8093BC008091BC0088236F
:10026000E4F78091BB00089584E88093BC008091FE
:10027000BC008823E4F78091BB000895CF93DF93FF
:10028000D82FC62F0E94100180910001880F0E9474
:1002900020018D2F0E9420018C2F0E9420010E949E
:1002A0001801DF91CF910895CF93DF93C82F0E945B
:1002B000100180910001880F0E9420018C2F0E9464
:1002C00020010E9410018091000190E0880F991F89
:1002D00081600E9420010E942A01D82F0E943401CF
:1002E000C82F0E9418018C2F90E0982F88278D2B03
:1002F000DF91CF9108951F93CF93DF93C82F0E9472
:10030000100180910001880F0E9420018C2F0E9413
:1003100020010E9410018091000190E0880F991F38
:1003200081600E9420010E942A01C82F0E942A0198
:10033000182F0E943401D82F0E9418018C2F90E0B2
:10034000A0E0B0E0BC0155274427812F90E0982F12
:100350008827A0E0B0E0842B952BA62BB72BBC01FF
:10036000CD016D2BDF91CF911F91089588E80E94F8
:10037000540190936501809364018AE80E945401BE
:1003800090936701809366018CE80E9454019093DA
:100390007701809376018EE80E94540190936F015B
:1003A00080936E0180E90E945401909369018093CB
:1003B000680182E90E945401909371018093700159
:1003C00084E90E94540190936B0180936A0186E94D
:1003D0000E94540190936D0180936C0188E90E9402
:1003E000540190937901809378018AE90E94540125
:1003F00090936301809362018CE90E945401909371
:100400007301809372018EE90E94540190937501EB
:100410008093740167E284EF0E943E0160EA85EFF9
:100420000E943E012FEF81EE94E0215080409040E9
:10043000E1F700C0000008954F925F926F927F92A3
:100440008F929F92AF92BF92CF92DF92EF92FF92E4
:100450008AEF0E947B016B017C01AB01BC016894B7
:1004600016F875956795579547951694D1F740906E
:10047000640150906501612C712CD301C201880F79
:10048000991FAA1FBB1F9A01AB01281B390B4A0BEE
:100490005B0BA0916601B09167010E9483094B013B
:1004A0005C01072E7BE0B594A794979487947A9586
:1004B000D1F7702DBB27F7FCBA95AF2D9E2D8D2D52
:1004C000BC01CD0164197509860997099B01AC012E
:1004D0000E9462099B01AC01012E1CE055954795D5
:1004E000379527951A95D1F7102DA0917601B091E7
:1004F00077010E948309DC01CB01072E7EE0B595D0
:10050000A795979587957A95D1F7702D880D991DA8
:10051000AA1DBB1D80937A0190937B01A0937C015F
:10052000B0937D016C017D01CC0CDD1CEE1CFF1C29
:10053000CC0CDD1CEE1CFF1C8C0D9D1DAE1DBF1DCB
:1005400080589F4FAF4FBF4F692F7A2F8B2F99271E
:1005500087FD9A950E94880820E030E048EC52E43C
:100560000E940E08FF90EF90DF90CF90BF90AF9069
:100570009F908F907F906F905F904F9008952F92F3
:100580003F924F925F926F927F928F929F92AF9223
:10059000BF92CF92DF92EF92FF920F931F93CF9370
:1005A000DF93CDB7DEB766970FB6F894DEBF0FBE08
:1005B000CDBF87EF0E947B019B01AC01689413F8CB
:1005C00055954795379527951694D1F72F87388BF2
:1005D000498B5A8B80917A0190917B01A0917C018B
:1005E000B0917D016C017D01FF0CCC08DC2C760103
:1005F000282F392F4A2F5B2F6C2D7C2D8C2D9C2D75
:10060000345F4140510961097109810991092983C8
:100610003A83442E552E662E772E282E392EA22E62
:10062000B32EC42ED52EE62EF72E082F192F0E949A
:100630008B092B833C834D835E836F837887898707
:100640009A87B0907901A09078011B2D110F110BA2
:10065000C12ED12EE12EF12E012F0E948B092B8766
:100660003C874D875E87862E972E8C8B9B8BB09018
:100670006D01A0906C011B2D110F110BC12ED12EFD
:10068000E12EF12E012F29813A81442D552D662D21
:10069000772D822D932D0E948B0901E10E94BB0AC8
:1006A000A22EB32EC42ED52EE62EF72E082F192FEC
:1006B0002B853C854D855E85682D792D8C899B89A0
:1006C0000E94F20A822E932E4C875B87B62FA72FAB
:1006D000F82FE92F30916B0120916A01932F990F28
:1006E000990B492F592F692F792F892F03E20E94E7
:1006F000BB0AA22EB32EC42ED52EE62EF72E082F1F
:10070000192F282D392D4C855B856B2F7A2F8F2F34
:100710009E2F0E94F20A2B873C874D875E876B8B4A
:100720007C8B8D8B9E8BB0907101A09070011B2DE6
:10073000110F110BC12ED12EE12EF12E012F2B8185
:100740003C814D815E816F81788589859A850E9483
:100750008B0908E00E94D40A2B833C834D835E837F
:10076000862E972E88879F83B0906901A09068019C
:100770001B2D110F110BC12ED12EE12EF12E012FA9
:1007800029813A81442D552D662D772D822D932D6B
:100790000E948B090CE00E94BB0AA22EB32EC42E2D
:1007A000D52EE62EF72E082F192F2B813C814D8157
:1007B0005E81682D792D88859F810E94F20A70588C
:1007C0008F4F9F4FE0916E01F0916F011F01AE2E90
:1007D000B32CC12CD12CE12CF12C00E010E00E94B4
:1007E0008B0901E20E94D40A422E532E642E752EEC
:1007F000862E972E8A839983A0E00E94040B09F429
:1008000004C180E090E0A0E1B0E02F8538894989FB
:100810005A89821B930BA40BB50B6C017D01FF0C55
:10082000CC08DC2C7601282F392F4A2F5B2F6C2D1A
:100830007C2D8C2D9C2D0FE10E94BB0AAB84BC84C7
:10084000CD84DE84EB88FC880D891E890E94FB0A1A
:100850000F2EF5E3AF2EF02D0F2EFCE0BF2EF02D66
:10086000C12CD12CE12CF12C00E010E00E948B096E
:10087000A42CB52CC62CD72CE82CF92C0A81198174
:100880000E94E6092C873B8749835A836B837C83CC
:100890008D839E83F0917501A0917401EF2FEE0F6F
:1008A000EE0B0DE00E94D40A222E332E442E552E3C
:1008B000662E772E882E992EA22EB32EC42ED52EDC
:1008C000E62EF72E082F192F2A2F3F2F4E2F5E2F9F
:1008D0006E2F7E2F8E2F9E2F0E948B09A22EB32E5D
:1008E000C42ED52EE62EF72E082F192F222D332DAC
:1008F000442D552D662D772D882D992D0E948B091D
:1009000009E10E94D40A522E432E342E252E6F83E5
:10091000788789879A87B0907301A09072011B2D08
:10092000110F110BC12ED12EE12EF12E012F2C858E
:100930003B8549815A816B817C818D819E810E949A
:100940008B0903E10E94D40A622E732E842E952E09
:10095000B62FA72FF82FE92F2C853B8549815A8187
:100960006B817C818D819E81A52CB42CC32CD22CD3
:10097000EF80F88409851A850E94F20AA22EB32E10
:10098000C42ED52EE62EF72E082F192F262D372D03
:10099000482D592D6B2F7A2F8F2F9E2F0E94F20AF0
:1009A00008E00E94D40A822E932E4A835983B62FE0
:1009B000A72FF82FE92F3091630120916201932F27
:1009C000990F990B492F592F692F792F892F04E0FF
:1009D0000E94BB0AA22EB32EC42ED52EE62EF72ED1
:1009E000082F192F282D392D4A8159816B2F7A2FE5
:1009F0008F2F9E2F0E94F20A0E94800820E030E094
:100A000048EC56E40E940E0803C060E070E0CB01A1
:100A100066960FB6F894DEBF0FBECDBFDF91CF91C3
:100A20001F910F91FF90EF90DF90CF90BF90AF900C
:100A30009F908F907F906F905F904F903F902F90FE
:100A400008950E940A010E9496050E94EB050E94EB
:100A5000B6010E941C024B015C010E94BF026B01A7
:100A60007C010EE711E022E045E0C501B4010E94DF
:100A70001F0B02E911E022E046E0C701B6010E9427
:100A80001F0B64E082E00E94070683E491E00E946D
:100A9000010864E083E00E9407068EE791E00E946F
:100AA000010880E591E00E94010864E086E00E9470
:100AB000070683E591E00E94010864E087E00E9458
:100AC0000706C8010E9401088DE591E00E94010817
:100AD0002FEF87EA91E6215080409040E1F700C077
:100AE0000000B7CFCF93C82F0E9410018091010161
:100AF0000E94200180E00E9420018C2F0E94200192
:100B00000E941801CF910895CF93C82F0E94100121
:100B1000809101010E94200180E40E9420018C2F1D
:100B20000E9420010E941801CF9108952FEF81EEBD
:100B300094E0215080409040E1F700C000008EEA30
:100B40000E94720585ED0E94720580E80E94720580
:100B500088EA0E9472058FE30E94720583ED0E946D
:100B6000720580E00E94720580E40E9472058DE8A3
:100B70000E94720584E10E94720580E20E94720563
:100B800080E00E94720581EA0E94720588EC0E9452
:100B900072058AED0E94720582E10E94720581E869
:100BA0000E9472058FEC0E94720589ED0E94720509
:100BB00081EF0E9472058BED0E94720580E40E9415
:100BC000720584EA0E94720586EA0E9472058FEA25
:100BD0000E9472050895CF93DF93D0E013C080EB9D
:100BE0008D0F0E94720580E00E94720580E10E94D4
:100BF0007205C0E004C080E00E948405CF5FCC2372
:100C0000D4F7DF5FD83058F3DF91CF910895CF93B9
:100C1000C62F80550E9472058C2F8F700E9472051E
:100C20008C2F82958F70805F0E947205CF910895FE
:100C30000F931F93CF93DF93CDB7DEB7E7970FB630
:100C4000F894DEBF0FBECDBF803251F405C080E006
:100C50000E9484051F5F01C010E01630C0F3C6C1BA
:100C60008E32D9F485E0E2E0F1E0DE0116960190E3
:100C70000D928A95E1F710E00AC0E6E0F0E0EC0F93
:100C8000FD1FE10FF11D80810E9484051F5F15305B
:100C9000A0F380E00E948405A9C18A33D9F485E0DD
:100CA000E7E0F1E0DE01169601900D928A95E1F7FA
:100CB00010E00AC0E6E0F0E0EC0FFD1FE10FF11DCF
:100CC00080810E9484051F5F1530A0F380E00E94A0
:100CD00084058CC18D32D9F485E0ECE0F1E0DE01D1
:100CE000169601900D928A95E1F710E00AC0E6E0B1
:100CF000F0E0EC0FFD1FE10FF11D80810E948405E3
:100D00001F5F1530A0F380E00E9484056FC100EDE5
:100D1000080F0A3030F582E3E1E1F1E0DE011696DA
:100D200001900D928A95E1F710E015C0802F90E0B8
:100D3000FC01EE0FFF1FEE0FFF1FE80FF91F81E010
:100D400090E08C0F9D1FE80FF91FE10FF11D8581C9
:100D50000E9484051F5F153048F380E00E948405DF
:100D600045C190E0FC01E154F109EA33F10508F0D6
:100D700028C1EC5CFF4F0C94720980E2898384E502
:100D80008A838B838C8388E78D8312C08FE7898366
:100D900088E48A8384E48B838C8388E38D8308C012
:100DA00088E3898384E48A838B838C8380E28D83C8
:100DB00010E017C188E3898384E48A838B8388E405
:100DC0008C838FE78D83F4CF88E3898384E58A83DE
:100DD0008B838C8388E18D83EBCF88E089838EE7DA
:100DE0008A8389E08B8381E08C8382E08D83E0CFEE
:100DF00088E0898384E18A8384E58B838C838CE318
:100E00008D83D6CF8FE7898388E08A8384E08B83C4
:100E10008C8388E78D83CCCF198284E48A838DE725
:100E20008B8380E48C831D82C3CF80E2898380E43E
:100E30008A8384E48B838DE38C831D82B9CF8FE713
:100E4000898380E18A8388E28B8384E48C831D829A
:100E5000AFCF198281E48A838FE78B8380E48C8310
:100E60001D82A6CF8CE7898384E08A8398E19B83E7
:100E70008C8388E78D839CCF8CE7898388E08A8385
:100E800084E08B838C8388E78D8392CF98E399836A
:100E900084E48A838B838C839D838ACF8CE78983C8
:100EA00084E18A838B838C8388E08D8381CF88E083
:100EB000898384E18A838B8388E18C838CE78D83AB
:100EC00077CF8CE7898388E08A8394E09B839C8337
:100ED0008D836ECF88E4898384E58A838B838C83BA
:100EE00080E28D8365CF84E089838FE38A8384E405
:100EF0008B8380E48C8380E28D835ACF8CE389835B
:100F000080E48A838B8380E28C838CE78D8350CF4F
:100F10008CE1898390E29A8320E42B839C838D83E8
:100F200047CF8CE3898390E49A8320E32B839C83CF
:100F30008D833ECF84E4898398E29A8320E12B83DA
:100F40009C838D8335CF8CE0898380E58A838B8376
:100F50008C838CE38D832CCF84E4898394E69A83FD
:100F600094E59B839CE49C838D8322CF9EE79983A9
:100F700081E18A838B838C839D831ACF8FE789835A
:100F800089E48A838B838C8386E38D8311CF8EE300
:100F9000898381E48A838B838C8382E28D8308CF6B
:100FA0008FE7898389E08A838B838C8386E08D83B6
:100FB000FFCE81E089838A839FE79B838C838D8327
:100FC000F7CE19821A821B821C821D82F1CEE1E0CB
:100FD000F0E0EC0FFD1FE10FF11D80810E94840500
:100FE0001F5F1530A0F380E00E948405E7960FB6DE
:100FF000F894DEBF0FBECDBFDF91CF911F910F914F
:101000000895CF93DF93EC0103C021960E94180648
:1010100088818111FACFDF91CF9108950E94220833
:101020000C9428090E94210958F00E941A0940F0E6
:1010300029F45F3F29F00C94010951110C945C09CB
:101040000C9407090E94390968F39923B1F35523D9
:1010500091F3951B550BBB27AA27621773078407CB
:1010600038F09F5F5F4F220F331F441FAA1FA9F361
:1010700035D00E2E3AF0E0E832D091505040E6954F
:10108000001CCAF72BD0FE2F29D0660F771F881FB0
:10109000BB1F261737074807AB07B0E809F0BB0BA3
:1010A000802DBF01FF2793585F4F3AF09E3F5105B7
:1010B00078F00C9401090C945C095F3FE4F3983ECE
:1010C000D4F3869577956795B795F7959F5FC9F7A0
:1010D000880F911D9695879597F90895E1E0660F21
:1010E000771F881FBB1F621773078407BA0720F09A
:1010F000621B730B840BBA0BEE1F88F7E095089503
:1011000097FB16F40E940A090C94C408E89409C0DD
:1011100097FB3EF490958095709561957F4F8F4F2A
:101120009F4F9923A9F0F92F96E9BB279395F69540
:10113000879577956795B795F111F8CFFAF4BB0FBE
:1011400011F460FF1BC06F5F7F4F8F4F9F4F16C022
:10115000882311F096E911C0772321F09EE8872FAC
:10116000762F05C0662371F096E8862F70E060E068
:101170002AF09A95660F771F881FDAF7880F9695E1
:10118000879597F90895E894F92F96EBFF2381F05E
:10119000121613061406440B9395F69587957795CA
:1011A000679557954040FF23B9F71BC099270895CD
:1011B000882351F49850D2F7872B762F652F542F20
:1011C000432F322F20E0B1F3121613061406440BFE
:1011D00088233AF09A95440F551F661F771F881F82
:1011E000CAF755234AF4440F551F11F460FF04C099
:1011F0006F5F7F4F8F4F9F4F880F9695879597F919
:10120000089597F99F6780E870E060E008959FEF88
:1012100080EC0895909580957095609550954095D7
:10122000309521953F4F4F4F5F4F6F4F7F4F8F4FFF
:101230009F4F089500240A941616170618060906EB
:10124000089500240A94121613061406050608953C
:10125000092E0394000C11F4882352F0BB0F40F4C4
:10126000BF2B11F460FF04C06F5F7F4F8F4F9F4F04
:10127000089557FD9058440F551F59F05F3F71F086
:101280004795880F97FB991F61F09F3F79F08795ED
:101290000895121613061406551FF2CF4695F1DF76
:1012A00008C0161617061806991FF1CF8695710506
:1012B000610508940895E894BB2766277727CB013A
:1012C00097F90895DB018F939F930E947809BF914E
:1012D000AF91A29F800D911DA39F900DB29F900D85
:1012E00011240895EE0FFF1F0590F491E02D09944D
:1012F0000E94100BA59F900DB49F900DA49F800D90
:10130000911D11240895B7FF0C9478090E94780963
:10131000821B930B0895DF93CF931F930F939A9D96
:10132000F02D219FF00D8B9DF00D8A9DE02DF10D8C
:10133000039FF00D029FE00DF11D4E9DE00DF11D8C
:101340005E9DF00D4F9DF00D7F936F93BF92AF9216
:101350005F934F93D5010E94100B8B01AC01D70115
:101360000E94100BEB01E80FF91FD6010E94DB0968
:101370002F913F91D6010E94100BC60FD71FE81F77
:10138000F91FAF91BF910E94DB092F913F910E94FD
:10139000100BC60FD71FE81FF91FD6010E94100BB4
:1013A000E60FF71F9801BE01CF0111240F911F9185
:1013B000CF91DF9108950E94100B460F571FC81F51
:1013C000D91F08F431960895689401C0E894F92F64
:1013D000F12B12F00C94180AA0E0B0E0E2EFF9E073
:1013E0000C948A0A092E059422F40E94740A11238F
:1013F00092F4F0E80F26FFEFE094F094009510953A
:10140000B094C094D094A194BF0ACF0ADF0AEF0A27
:10141000FF0A0F0B1F0B0E94230A07FC0E94740A8D
:10142000CDB7DEB7ECE00C94A60A689401C0E8944E
:101430008F929F92CF93DF930E94230ADF91CF91E7
:101440009F908F90089588249924F401E401B0E4DA
:101450009F93AA279A158B049C04ED05FE05CF05E2
:10146000D007A10798F4AD2FDC2FCF2FFE2FE92D49
:10147000982C892E982F872F762F652F542F432F46
:10148000322F2227B85031F7BF9127C01B2EBF91B2
:10149000BB27220F331F441F551F661F771F881F4E
:1014A000991F881C991CEE1FFF1FCC1FDD1FAA1F50
:1014B000BB1F8A149B04EC05FD05CE05DF05A007C4
:1014C000B10748F08A189B08EC09FD09CE09DF092D
:1014D000A00BB10B21601A94E1F62EF49401AF0138
:1014E000BE01CD01000C0895609570958095909592
:1014F00030954095509521953F4F4F4F5F4F6F4F1F
:101500007F4F8F4F9F4F08952F923F924F925F9240
:101510006F927F928F929F92AF92BF92CF92DF9203
:10152000EF92FF920F931F93CF93DF93CDB7DEB768
:10153000CA1BDB0B0FB6F894DEBF0FBECDBF0994FC
:101540002A88398848885F846E847D848C849B8453
:10155000AA84B984C884DF80EE80FD800C811B8161
:10156000AA81B981CE0FD11D0FB6F894DEBF0FBE90
:10157000CDBFED0108950F93083090F0982F872F7D
:10158000762F652F542F432F322F22270850F4CF68
:10159000220F331F441F551F661F771F881F991F77
:1015A0000A95B2F70F91089597FB10F8169400086A
:1015B0000F93083098F00850232F342F452F562FC3
:1015C000672F782F892F902DF4CF059497958795C5
:1015D0007795679557954795379527950A95AAF773
:1015E0000F9108952A0D3B1D4C1D5D1D6E1D7F1D25
:1015F000801F911F08952A193B094C095D096E0946
:101600007F09800B910B08950024A7FD00942A17F1
:10161000300540055005600570058005900508956A
:10162000A29FB001B39FC001A39F700D811D112423
:10163000911DB29F700D811D1124911D0895EF928F
:101640000F931F93CF93DF93E80147FD02C034E06F
:1016500001C034E1042E000C550B57FF03C0519517
:1016600041955109E32E022F242FAE010E943F0B1A
:10167000CE01DF91CF911F910F91EF900895A9E0D6
:10168000B0E0E5E4FBE00C948A0A6A01122FB02E68
:101690002BE3201720F0FF24F394F00E02C02CE37C
:1016A000F22E0F2D27E0AE014F5F5F4F0E94990C85
:1016B000BC014981842F8970813031F0E1FC06C082
:1016C000E0FE06C090E205C09DE203C09BE201C0BF
:1016D00090E05E2D507143FF3CC0911102C083E049
:1016E00001C084E0811718F4212F281B01C020E0DD
:1016F00051110BC0F601822F30E2882319F031938B
:101700008150FBCFC20ED11C20E0992329F0D601D5
:101710009C93F60131966F01C6010396E2FE0AC062
:101720003EE4D6013C9341E411964C9311971296F6
:101730003C9306C03EE6F601308341E641833283A6
:10174000FC01322F40E2332309F442C0419331506F
:10175000FACF42FF44C0911102C083E001C084E08F
:10176000811718F4212F281B01C020E051110BC054
:10177000F601822F30E2882319F031938150FBCF9C
:10178000C20ED11C20E0992329F0D6019C93F601CA
:1017900031966F01C6010396E2FE0BC039E4D60113
:1017A0003C933EE411963C93119736E412963C9399
:1017B00007C039E6F60130833EE6318336E63283F0
:1017C000FC01322F40E2332319F041933150FBCF1B
:1017D000FC01E20FF11D10828EEF9FEFA6C021E009
:1017E00030E0911102C020E030E0161617061CF41C
:1017F000FB01319602C0E1E0F0E02E0F3F1FBB205D
:1018000021F0EB2DF0E0319602C0E0E0F0E02E0F89
:101810003F1FE12FF0E02E173F071CF4121B212F72
:1018200001C020E08E2D887159F4F601822F30E23C
:10183000882319F031938150FBCFC20ED11C20E0D8
:10184000992329F0D6019C93F60131966F0151112D
:101850000BC0F601822F90E3882319F091938150F9
:10186000FBCFC20ED11C20E00F2D060F9A81342F22
:10187000307144FF03C0913309F40150101624F471
:10188000093018F008E001C001E0AB0177FF02C0A9
:1018900040E050E0FB01E41BF50BA1E0B0E0AC0F31
:1018A000BD1FEA0FFB1F8EE2A82E4B01801A910884
:1018B0000B2D10E01195019511094F3FBFEF5B070C
:1018C00021F4D601AC9211966D01641775072CF0C6
:1018D0008416950614F4818101C080E341505109BA
:1018E0003196D60111967D014017510724F0D6019B
:1018F0008C936701E2CF6417750739F4963320F4AF
:10190000953319F4311101C081E3F6018083F701A9
:10191000822F90E2882319F091938150FBCFF70139
:10192000E20FF11D108280E090E02996ECE00C942B
:10193000A60A283008F027E03327DA01990F311D75
:1019400087FD916000966105710539F432602E5F64
:101950003D9330E32A95E1F708959F3F30F08038BA
:101960007105610509F03C5F3C5F3D93913008F0E3
:101970008068911DDF93CF931F930F93FF92EF9297
:10198000192F987F9695E92F96959695E90FFF2741
:10199000EA5CFE4F99273327EE24FF24A701E701D5
:1019A00005900894079428F4360FE71EF81E491F87
:1019B000511D660F771F881F991F0694A1F7059088
:1019C000079428F4E70EF81E491F561FC11D770F14
:1019D000881F991F661F0694A1F70590079428F4A5
:1019E000F80E491F561FC71FD11D880F991F661F6C
:1019F000771F0694A1F70590079420F4490F561F0E
:101A0000C71FD81F990F661F771F881F0694A9F755
:101A100084911095177041F0D695C79557954795C5
:101A2000F794E7941A95C1F7ECEDF0E068941590FF
:101A3000159135916591959105907FE27395E11827
:101A4000F10A430B560BC90BD009C0F7E10CF11E8C
:101A5000431F561FC91FD01D7EF4703311F48A95A1
:101A6000E6CFE894015030F0080F0AF4002702177F
:101A700008F4202F2395022F7A3328F079E37D9301
:101A80002A95E9F710C07D932A9589F606949795D3
:101A90006795379517951794E118F10A430B560B84
:101AA000C90BD00998F023957E9173957A3308F08D
:101AB00070E37C932013B8F77E9170617D9330F0D2
:101AC000839571E37D9370E32A95E1F71124EF90FC
:101AD000FF900F911F91CF91DF91992787FD9095EE
:061AE0000895F894FFCF09
:101AE60076780060600000003636000008080808B6
:101AF600083E5149453E00427F40004261514946F9
:101B06002141454B311814127F1027454545393C74
:101B16004A4949300171090503364949493606499A
:101B260049291E54656D70657261747572653A0057
:101B360020430050726573737572653A00206850D1
:021B460061003C
:00000001FF
