S00B00004144432E7372656351
S11300000C9434000C9449000C9449000C9449005D
S11300100C9449000C9449000C9449000C94490038
S11300200C9449000C9449000C9449000C94490028
S11300300C9449000C9449000C9449000C94490018
S11300400C9449000C9449000C9449000C94490008
S11300500C9449000C9449000C9449000C944900F8
S11300600C9449000C94490011241FBECFEFD8E032
S1130070DEBFCDBF11E0A0E0B1E0E4E3F3E002C0F5
S113008005900D92AE30B107D9F70E9466010C9429
S113009098010C940000ECE7F0E080818064808398
S11300A080818F778083EAE7F0E0808180688083B5
S11300B080818760808308958770ECE7F0E0908109
S11300C0987F892B8083EAE7F0E0808180648083D5
S11300D080917A0086FDFCCF209178008091790090
S11300E090E0982F8827822B089585B1886085B980
S11300F085E08A95F1F7000085B1877F85B987ECA3
S113010090E00197F1F700C0000008959BB1937C43
S11301109BB983FF03C09BB194609BB982FF03C06A
S11301209BB198609BB981FF03C09BB190619BB95F
S113013080FF03C08BB180628BB90E947500089563
S1130140CF93C82F613021F485B1806185B903C094
S113015085B18F7E85B98C2F82958F700E94860021
S11301608C2F8F700E948600CF910895CF93C82F53
S113017060E00E94A000C150C23030F48FE39FE1E0
S11301800197F1F700C00000CF91089561E00E944B
S1130190A0000895882311F090E401C090E0862F18
S11301A08F70890F80680E94B6000895CF93DF9303
S11301B0EC0103C021960E94C60088818111FACF08
S11301C0DF91CF91089581E00E94B600089584B133
S11301D0806184B984B1886084B98AB18C638AB936
S11301E02FEF89EF90E0215080409040E1F700C06C
S11301F0000085B18F7E85B985B1877F85B983E09D
S11302000E9486008FE19EE40197F1F700C0000090
S113021083E00E94860087E592E00197F1F700C031
S1130220000083E00E94860087E592E00197F1F7E1
S113023000C0000082E00E94860087E592E00197FA
S1130240F1F700C0000088E20E94B60088E00E9436
S1130250B60081E00E94B60086E00E94B6008CE001
S11302600E94B6000895CF93DF93EC018A30910584
S113027068F09C01ADECBCEC0E94890196958795D1
S113028096958795969587950E9433019E01ADECCE
S1130290BCEC0E94890196958795969587959695CD
S11302A087959C01220F331F880F991F880F991F70
S11302B0880F991F820F931F9E01281B390BC901B8
S11302C0805D0E94C600DF91CF9108950E94E700EF
S11302D00E944B000E94E30060E080E00E94CA009C
S11302E080E091E00E94D60080E00E945C00EC0176
S11302F060E081E00E94CA00CE010E9433012FEF2A
S113030089E698E1215080409040E1F700C0000068
S1130310E1CFA29FB001B39FC001A39F700D811DC7
S11303201124911DB29F700D811D1124911D0895FA
S1070330F894FFCF6B
S11103344144432056414C5545203D3E0000B7
S9030000FC
