:100000000C9434000C9449000C9449000C94490061
:100010000C9449000C9449000C9449000C9449003C
:100020000C9449000C9449000C9449000C9449002C
:100030000C9449000C9449000C9449000C9449001C
:100040000C9449000C9449000C9449000C9449000C
:100050000C9449000C9449000C9449000C944900FC
:100060000C9449000C94490011241FBECFEFD8E036
:10007000DEBFCDBF11E0A0E0B1E0EAECF8E002C0E5
:1000800005900D92AE30B107D9F70E944B000C9449
:1000900063040C940000CF93DF9300D000D0CDB761
:1000A000DEB70E94D50184B18D6284B984B18F7EA0
:1000B00084B98CB581658CBD8CB5837F8CBD85B1D1
:1000C0008B7F85B980ED8EBD0DB407FEFDCF8EB55B
:1000D0001EBC0DB407FEFDCF2EB5298385B184600B
:1000E00085B985B18B7F85B984E78EBD0DB407FED8
:1000F000FDCF8EB587E28EBD0DB407FEFDCF8EB568
:1001000085B1846085B93FEF81EE94E03150804045
:100110009040E1F700C0000085B18B7F85B988E889
:100120008EBD0DB407FEFDCF8EB51EBC0DB407FE0F
:10013000FDCF9EB51EBC0DB407FEFDCF0EB585B13B
:10014000846085B910E0102F0027092B85B18B7FC3
:1001500085B98AE88EBD0DB407FEFDCF8EB51EBCF5
:100160000DB407FEFDCF9EB51EBC0DB407FEFDCF3E
:100170002EB52A8385B1846085B93A81232F30E07A
:10018000322F2227292B3C832B8385B18B7F85B986
:100190008CE88EBD0DB407FEFDCF8EB51EBC0DB430
:1001A00007FEFDCF9EB51EBC0DB407FEFDCF2EB4DD
:1001B00085B1846085B9312C322C2224292A85B15D
:1001C0008B7F85B98AEF8EBD0DB407FEFDCF8EB54E
:1001D0001EBC0DB407FEFDCF8EB590E0A0E0B0E0F0
:1001E0001EBC0DB407FEFDCF4EB550E060E070E0E0
:1001F0001EBC0DB407FEFDCFCEB4D12CE12CF12CEA
:1002000025B1246025B9072E7CE0880F991FAA1F0D
:10021000BB1F7A95D1F7702D440F551F661F771FAE
:10022000440F551F661F771F440F551F661F771F0A
:10023000440F551F661F771F842B952BA62BB72BBA
:10024000689413F8F694E794D794C7941694D1F76A
:10025000BC01CD016C297D298E299F290E9427038D
:100260004B015C0120E030E040E858E30E94B50318
:100270002B013C01B80180E090E00E9427036B0154
:100280007C0120E030E040E85AE30E94B5039B0186
:10029000AC01C301B2010E9412022B013C012B816F
:1002A0003C81B901330F880B990B0E942903A301EC
:1002B00092010E94B5032B013C0120E030E040E0B8
:1002C00057E3C501B4010E94B5034B015C0120E076
:1002D00030E040E059E3C701B6010E94B5039B013D
:1002E000AC01C501B4010E9412026B017C01B10195
:1002F000032C000C880B990B0E942903A70196017F
:100300000E94B5039B01AC01C301B2010E9413021C
:1003100020E030E040EA55E40E947F026B017C015E
:1003200080E091E00E94E801C701B6010E94F1025D
:100330004B01770FAA08BB08C501B4010E9429032D
:100340009B01AC01C701B6010E94120220E030E01F
:1003500048EC52E40E94B5030E94F1026B017C015B
:10036000C501B4010E94F5018EE20E94E101B601CF
:10037000DD0C880B990B0E94F50188E091E00E944A
:10038000E8013981383521F485B1816085B903C030
:1003900085B18E7F85B98FEF93ED20E3815090403A
:1003A0002040E1F700C000000ACF1092C50087E6A8
:1003B0008093C40088E08093C10086E08093C200EF
:1003C00008959091C00095FFFCCF8093C6000895DA
:1003D000CF93DF93EC0103C021960E94E101888155
:1003E0008111FACFDF91CF910895CF93DF93CDB7ED
:1003F000DEB72C970FB6F894DEBF0FBECDBF2AE054
:10040000AE014F5F5F4F0E942204CE0101960E9411
:10041000E8012C960FB6F894DEBF0FBECDBFDF917A
:10042000CF9108955058BB27AA270E942A020C9406
:100430007B030E946D0338F00E94740320F039F4AE
:100440009F3F19F426F40C946A030EF4E095E7FB41
:100450000C946403E92F0E948C0358F3BA176207C7
:1004600073078407950720F079F4A6F50C94AE0382
:100470000EF4E0950B2EBA2FA02D0B01B9019001BF
:100480000C01CA01A0011124FF27591B99F0593F03
:1004900050F4503E68F11A16F040A22F232F342F4B
:1004A0004427585FF3CF469537952795A795F04099
:1004B0005395C9F77EF41F16BA0B620B730B840BAE
:1004C000BAF09150A1F0FF0FBB1F661F771F881F66
:1004D000C2F70EC0BA0F621F731F841F48F48795BE
:1004E00077956795B795F7959E3F08F0B0CF9395B0
:1004F000880F08F09927EE0F9795879508950E9429
:1005000093020C947B030E94740358F00E946D03C5
:1005100040F029F45F3F29F00C94640351110C94CE
:10052000AF030C946A030E948C0368F39923B1F320
:10053000552391F3951B550BBB27AA276217730709
:10054000840738F09F5F5F4F220F331F441FAA1F9D
:10055000A9F335D00E2E3AF0E0E832D09150504059
:10056000E695001CCAF72BD0FE2F29D0660F771F07
:10057000881FBB1F261737074807AB07B0E809F0ED
:10058000BB0B802DBF01FF2793585F4F3AF09E3F72
:10059000510578F00C9464030C94AF035F3FE4F3CF
:1005A000983ED4F3869577956795B795F7959F5FB5
:1005B000C9F7880F911D9695879597F90895E1E001
:1005C000660F771F881FBB1F621773078407BA0760
:1005D00020F0621B730B840BBA0BEE1F88F7E095BB
:1005E00008950E94F8026894B1110C94AF03089525
:1005F0000E94940388F09F5798F0B92F9927B7511C
:10060000B0F0E1F0660F771F881F991F1AF0BA95B6
:10061000C9F714C0B13091F00E94AE03B1E0089563
:100620000C94AE03672F782F8827B85F39F0B93F55
:10063000CCF3869577956795B395D9F73EF4909569
:100640008095709561957F4F8F4F9F4F0895E894E7
:1006500009C097FB3EF490958095709561957F4F0A
:100660008F4F9F4F9923A9F0F92F96E9BB279395B8
:10067000F695879577956795B795F111F8CFFAF4C8
:10068000BB0F11F460FF1BC06F5F7F4F8F4F9F4FF9
:1006900016C0882311F096E911C0772321F09EE857
:1006A000872F762F05C0662371F096E8862F70E0BD
:1006B00060E02AF09A95660F771F881FDAF7880F97
:1006C0009695879597F9089597F99F6780E870E068
:1006D00060E008959FEF80EC089500240A941616B8
:1006E000170618060906089500240A941216130620
:1006F000140605060895092E0394000C11F48823AE
:1007000052F0BB0F40F4BF2B11F460FF04C06F5FC9
:100710007F4F8F4F9F4F089557FD9058440F551F9F
:1007200059F05F3F71F04795880F97FB991F61F073
:100730009F3F79F087950895121613061406551FEA
:10074000F2CF4695F1DF08C0161617061806991F56
:10075000F1CF86957105610508940895E894BB274B
:1007600066277727CB0197F908950E94C8030C9458
:100770007B030E946D0338F00E94740320F09523E0
:1007800011F00C9464030C946A0311240C94AF03CD
:100790000E948C0370F3959FC1F3950F50E0551F95
:1007A000629FF001729FBB27F00DB11D639FAA27C6
:1007B000F00DB11DAA1F649F6627B00DA11D661F15
:1007C000829F2227B00DA11D621F739FB00DA11D36
:1007D000621F839FA00D611D221F749F3327A00DF0
:1007E000611D231F849F600D211D822F762F6A2F8C
:1007F00011249F5750409AF0F1F088234AF0EE0FF1
:10080000FF1FBB1F661F771F881F91505040A9F71D
:100810009E3F510580F00C9464030C94AF035F3F3E
:10082000E4F3983ED4F3869577956795B795F79559
:10083000E7959F5FC1F7FE2B880F911D96958795D1
:1008400097F90895BB272A3051F4992342F4BDE269
:1008500090958095709561957F4F8F4F9F4F0C9429
:100860003204BB27FA01A62F621771058105910595
:10087000330B30FB66F0AA27660F771F881F991F7E
:10088000AA1FA21710F0A21B63953850A9F7A05D0C
:10089000AA3308F0A95DA19336F7B111B193108284
:1008A000CA010C945304DC01FC01672F719177237A
:1008B000E1F7329704C07C916D9370836291AE171B
:0A08C000BF07C8F30895F894FFCFB6
:0E08CA0054454D50203D200020430D0A0000F3
:00000001FF
