S00B00005350492E737265632D
S11300000C9434000C9449000C9449000C9449005D
S11300100C9449000C9449000C9449000C94490038
S11300200C9449000C9449000C9449000C94490028
S11300300C9449000C9449000C9449000C94490018
S11300400C9449000C9449000C9449000C94490008
S11300500C9449000C9449000C9449000C944900F8
S11300600C9449000C94490011241FBECFEFD8E032
S1130070DEBFCDBF11E0A0E0B1E0E8ECF8E002C0E3
S113008005900D92AE30B107D9F70E944B000C9445
S113009062040C940000CF93DF9300D000D0CDB75E
S11300A0DEB70E94D40184B18D6284B984B18F7E9D
S11300B084B98CB581658CBD8CB5837F8CBD85B1CD
S11300C08B7F85B980ED8EBD0DB407FEFDCF8EB557
S11300D01EBC0DB407FEFDCF2EB5298385B1846007
S11300E085B985B18B7F85B984E78EBD0DB407FED4
S11300F0FDCF8EB587E28EBD0DB407FEFDCF8EB564
S113010085B1846085B93FEF81EE94E03150804041
S11301109040E1F700C0000085B18B7F85B988E885
S11301208EBD0DB407FEFDCF8EB51EBC0DB407FE0B
S1130130FDCF9EB51EBC0DB407FEFDCF0EB585B137
S1130140846085B910E0102F0027092B85B18B7FBF
S113015085B98AE88EBD0DB407FEFDCF8EB51EBCF1
S11301600DB407FEFDCF9EB51EBC0DB407FEFDCF3A
S11301702EB52A8385B1846085B93A81232F30E076
S1130180322F2227292B3C832B8385B18B7F85B982
S11301908CE88EBD0DB407FEFDCF8EB51EBC0DB42C
S11301A007FEFDCF9EB51EBC0DB407FEFDCF2EB4D9
S11301B085B1846085B9312C322C2224292A85B159
S11301C08B7F85B98AEF8EBD0DB407FEFDCF8EB54A
S11301D01EBC0DB407FEFDCF8EB590E0A0E0B0E0EC
S11301E01EBC0DB407FEFDCF4EB550E060E070E0DC
S11301F01EBC0DB407FEFDCFCEB4D12CE12CF12CE6
S113020025B1246025B9072E7CE0880F991FAA1F09
S1130210BB1F7A95D1F7702D440F551F661F771FAA
S1130220440F551F661F771F440F551F661F771F06
S1130230440F551F661F771F842B952BA62BB72BB6
S1130240689413F8F694E794D794C7941694D1F766
S1130250BC01CD016C297D298E299F290E9426038A
S11302604B015C0120E030E040E858E30E94B40315
S11302702B013C01B80180E090E00E9426036B0151
S11302807C0120E030E040E85AE30E94B4039B0183
S1130290AC01C301B2010E9411022B013C012B816C
S11302A03C81B90180E090E00E942603A301920101
S11302B00E94B4032B013C0120E030E040E057E30E
S11302C0C501B4010E94B4034B015C0120E030E09D
S11302D040E059E3C701B6010E94B4039B01AC019D
S11302E0C501B4010E9411026B017C01B101032C10
S11302F0000C880B990B0E942803A70196010E9409
S1130300B4039B01AC01C301B2010E94120220E0BC
S113031030E040EA55E40E947E026B017C0180E0FB
S113032091E00E94E701C701B6010E94F0024B016F
S1130330770FAA08BB08C501B4010E9428039B01DA
S1130340AC01C701B6010E94110220E030E048EC84
S113035052E40E94B4030E94F0026B017C01C501C7
S1130360B4010E94F4018EE20E94E001B601DD0CAA
S1130370880B990B0E94F40188E091E00E94E70148
S11303803981383521F485B1816085B903C085B1DF
S11303908E7F85B98FEF93ED20E38150904020400C
S11303A0E1F700C000000BCF1092C50087E68093F0
S11303B0C40088E08093C10086E08093C200089561
S11303C09091C00095FFFCCF8093C6000895CF9311
S11303D0DF93EC0103C021960E94E0018881811122
S11303E0FACFDF91CF910895CF93DF93CDB7DEB7E6
S11303F02C970FB6F894DEBF0FBECDBF2AE0AE0136
S11304004F5F5F4F0E942104CE0101960E94E701D5
S11304102C960FB6F894DEBF0FBECDBFDF91CF91FF
S113042008955058BB27AA270E9429020C947A03E6
S11304300E946C0338F00E94730320F039F49F3F4C
S113044019F426F40C9469030EF4E095E7FB0C947C
S11304506303E92F0E948B0358F3BA1762077307EB
S11304608407950720F079F4A6F50C94AD030EF4F7
S1130470E0950B2EBA2FA02D0B01B90190010C01B0
S1130480CA01A0011124FF27591B99F0593F50F4C8
S1130490503E68F11A16F040A22F232F342F442720
S11304A0585FF3CF469537952795A795F040539518
S11304B0C9F77EF41F16BA0B620B730B840BBAF0E8
S11304C09150A1F0FF0FBB1F661F771F881FC2F753
S11304D00EC0BA0F621F731F841F48F48795779567
S11304E06795B795F7959E3F08F0B0CF9395880F21
S11304F008F09927EE0F9795879508950E94920228
S11305000C947A030E94730358F00E946C0340F029
S113051029F45F3F29F00C94630351110C94AE034A
S11305200C9469030E948B0368F39923B1F3552358
S113053091F3951B550BBB27AA27621773078407F2
S113054038F09F5F5F4F220F331F441FAA1FA9F388
S113055035D00E2E3AF0E0E832D091505040E69576
S1130560001CCAF72BD0FE2F29D0660F771F881FD7
S1130570BB1F261737074807AB07B0E809F0BB0BCA
S1130580802DBF01FF2793585F4F3AF09E3F5105DE
S113059078F00C9463030C94AE035F3FE4F3983E4D
S11305A0D4F3869577956795B795F7959F5FC9F7C7
S11305B0880F911D9695879597F90895E1E0660F48
S11305C0771F881FBB1F621773078407BA0720F0C1
S11305D0621B730B840BBA0BEE1F88F7E09508952A
S11305E00E94F7026894B1110C94AE0308950E941E
S11305F0930388F09F5798F0B92F9927B751B0F01B
S1130600E1F0660F771F881F991F1AF0BA95C9F792
S113061014C0B13091F00E94AD03B1E008950C9480
S1130620AD03672F782F8827B85F39F0B93FCCF333
S1130630869577956795B395D9F73EF4909580950F
S1130640709561957F4F8F4F9F4F0895E89409C02F
S113065097FB3EF490958095709561957F4F8F4FF1
S11306609F4F9923A9F0F92F96E9BB279395F69507
S1130670879577956795B795F111F8CFFAF4BB0F85
S113068011F460FF1BC06F5F7F4F8F4F9F4F16C0E9
S1130690882311F096E911C0772321F09EE8872F73
S11306A0762F05C0662371F096E8862F70E060E02F
S11306B02AF09A95660F771F881FDAF7880F9695A8
S11306C0879597F9089597F99F6780E870E060E04F
S11306D008959FEF80EC089500240A9416161706D7
S11306E018060906089500240A941216130614061F
S11306F005060895092E0394000C11F4882352F082
S1130700BB0F40F4BF2B11F460FF04C06F5F7F4F39
S11307108F4F9F4F089557FD9058440F551F59F020
S11307205F3F71F04795880F97FB991F61F09F3FDA
S113073079F087950895121613061406551FF2CF03
S11307404695F1DF08C0161617061806991FF1CF53
S113075086957105610508940895E894BB2766277A
S11307607727CB0197F908950E94C7030C947A0365
S11307700E946C0338F00E94730320F0952311F05B
S11307800C9463030C94690311240C94AE030E942B
S11307908B0370F3959FC1F3950F50E0551F629F33
S11307A0F001729FBB27F00DB11D639FAA27F00DC6
S11307B0B11DAA1F649F6627B00DA11D661F829FED
S11307C02227B00DA11D621F739FB00DA11D621FD2
S11307D0839FA00D611D221F749F3327A00D611DEF
S11307E0231F849F600D211D822F762F6A2F1124D1
S11307F09F5750409AF0F1F088234AF0EE0FFF1F04
S1130800BB1F661F771F881F91505040A9F79E3F5A
S1130810510580F00C9463030C94AE035F3FE4F342
S1130820983ED4F3869577956795B795F795E795B0
S11308309F5FC1F7FE2B880F911D9695879597F9B9
S11308400895BB272A3051F4992342F4BDE29095D0
S11308508095709561957F4F8F4F9F4F0C94310415
S1130860BB27FA01A62F6217710581059105330B89
S113087030FB66F0AA27660F771F881F991FAA1FEF
S1130880A21710F0A21B63953850A9F7A05DAA33F4
S113089008F0A95DA19336F7B111B1931082CA0192
S11308A00C945204DC01FC01672F71917723E1F76A
S11308B0329704C07C916D9370836291AE17BF0729
S10B08C0C8F30895F894FFCF7A
S11108C854454D50203D200020430D0A0000F1
S9030000FC
