:100000000C9434000C9449000C9449000C94490061
:100010000C9449000C9449000C9449000C9449003C
:100020000C9449000C9449000C9449000C9449002C
:100030000C9449000C9449000C9449000C9449001C
:100040000C9449000C9449000C9449000C9449000C
:100050000C9449000C9449000C9449000C944900FC
:100060000C9449000C94490011241FBECFEFD8E036
:10007000DEBFCDBF11E0A0E0B1E0ECE2F7E002C0EE
:1000800005900D92A231B107D9F70E94B3010C94EB
:1000900094030C940000ECE7F0E08081806480839E
:1000A00080818F778083EAE7F0E0808180688083B9
:1000B00080818760808308958770ECE7F0E090810D
:1000C000987F892B8083EAE7F0E0808180648083D9
:1000D00080917A0086FDFCCF209178008091790094
:1000E00090E0982F8827822B089585B1886085B984
:1000F00085E08A95F1F7000085B1877F85B987ECA7
:1001000090E00197F1F700C0000008959BB1937C47
:100110009BB983FF03C09BB194609BB982FF03C06E
:100120009BB198609BB981FF03C09BB190619BB963
:1001300080FF03C08BB180628BB90E947500089567
:10014000CF93C82F613021F485B1806185B903C098
:1001500085B18F7E85B98C2F82958F700E94860025
:100160008C2F8F700E948600CF910895CF93C82F57
:1001700060E00E94A000C150C23030F48FE39FE1E4
:100180000197F1F700C00000CF91089561E00E944F
:10019000A0000895882311F090E401C090E0862F1C
:1001A0008F70890F80680E94B6000895CF93DF9307
:1001B000EC0103C021960E94C60088818111FACF0C
:1001C000DF91CF91089581E00E94B600089584B137
:1001D000806184B984B1886084B98AB18C638AB93A
:1001E0002FEF89EF90E0215080409040E1F700C070
:1001F000000085B18F7E85B985B1877F85B983E0A1
:100200000E9486008FE19EE40197F1F700C0000094
:1002100083E00E94860087E592E00197F1F700C035
:10022000000083E00E94860087E592E00197F1F7E5
:1002300000C0000082E00E94860087E592E00197FE
:10024000F1F700C0000088E20E94B60088E00E943A
:10025000B60081E00E94B60086E00E94B6008CE005
:100260000E94B6000895CF93DF93EC018A30910588
:1002700068F09C01ADECBCEC0E94850396958795D7
:1002800096958795969587950E9433019E01ADECD2
:10029000BCEC0E94850396958795969587959695D3
:1002A00087959C01220F331F880F991F880F991F74
:1002B000880F991F820F931F9E01281B390BC901BC
:1002C000805D0E94C600DF91CF9108958F929F922A
:1002D000AF92BF92CF92DF92EF92FF92CF93DF93D4
:1002E0004B015C01D42F0E945B026B017C01CB01AE
:1002F0000E9433018EE20E94C600B60180E090E0C9
:100300000E948A029B01AC01C501B4010E94EE016A
:10031000C0E01CC020E030E040E251E40E9418033D
:100320004B015C010E945B026B017C0180E38C0D40
:100330000E94C600B60180E090E00E948A029B0104
:10034000AC01C501B4010E94EE01CF5FCD1710F3DF
:10035000DF91CF91FF90EF90DF90CF90BF90AF9063
:100360009F908F9008950E94E7000E944B000E948A
:10037000E30060E080E00E94CA0080E091E00E941B
:10038000D60080E00E945C00BC017727072E000C9D
:10039000880B990B0E948C0223E23BED49EF5EE350
:1003A0000E9418036B017C0160E081E00E94CA009A
:1003B00043E0C701B6010E9466018FED0E94C600AE
:1003C0008FE091E00E94D6002FEF89E698E121505E
:1003D00080409040E1F700C00000C9CF5058BB27D3
:1003E000AA270E9406020C94DE020E94D00238F076
:1003F0000E94D70220F039F49F3F19F426F40C94A0
:10040000CD020EF4E095E7FB0C94C702E92F0E94A1
:10041000EF0258F3BA17620773078407950720F0B5
:1004200079F4A6F50C9411030EF4E0950B2EBA2F77
:10043000A02D0B01B90190010C01CA01A0011124EA
:10044000FF27591B99F0593F50F4503E68F11A1696
:10045000F040A22F232F342F4427585FF3CF469527
:1004600037952795A795F0405395C9F77EF41F1649
:10047000BA0B620B730B840BBAF09150A1F0FF0F13
:10048000BB1F661F771F881FC2F70EC0BA0F621FFF
:10049000731F841F48F4879577956795B795F795EF
:1004A0009E3F08F0B0CF9395880F08F09927EE0F84
:1004B0009795879508950E94F70288F09F5798F0C6
:1004C000B92F9927B751B0F0E1F0660F771F881F59
:1004D000991F1AF0BA95C9F714C0B13091F00E9473
:1004E0001103B1E008950C941103672F782F88272A
:1004F000B85F39F0B93FCCF3869577956795B3959A
:10050000D9F73EF490958095709561957F4F8F4F08
:100510009F4F0895E89409C097FB3EF4909580950D
:10052000709561957F4F8F4F9F4F9923A9F0F92FB9
:1005300096E9BB279395F695879577956795B79537
:10054000F111F8CFFAF4BB0F11F460FF1BC06F5F1D
:100550007F4F8F4F9F4F16C0882311F096E911C02F
:10056000772321F09EE8872F762F05C0662371F050
:1005700096E8862F70E060E02AF09A95660F771F64
:10058000881FDAF7880F9695879597F9089597F958
:100590009F6780E870E060E008959FEF80EC089529
:1005A00000240A9416161706180609060895002452
:1005B0000A9412161306140605060895092E0394CC
:1005C000000C11F4882352F0BB0F40F4BF2B11F440
:1005D00060FF04C06F5F7F4F8F4F9F4F089557FD9F
:1005E0009058440F551F59F05F3F71F04795880FA1
:1005F00097FB991F61F09F3F79F087950895121638
:1006000013061406551FF2CF4695F1DF08C01616E3
:1006100017061806991FF1CF869571056105089494
:100620000895E894BB2766277727CB0197F90895AB
:100630000E942B030C94DE020E94D00238F00E942C
:10064000D70220F0952311F00C94C7020C94CD0230
:1006500011240C9412030E94EF0270F3959FC1F3D2
:10066000950F50E0551F629FF001729FBB27F00D60
:10067000B11D639FAA27F00DB11DAA1F649F6627B5
:10068000B00DA11D661F829F2227B00DA11D621F04
:10069000739FB00DA11D621F839FA00D611D221FBE
:1006A000749F3327A00D611D231F849F600D211DA2
:1006B000822F762F6A2F11249F5750409AF0F1F025
:1006C00088234AF0EE0FFF1FBB1F661F771F881F8E
:1006D00091505040A9F79E3F510580F00C94C702FD
:1006E0000C9412035F3FE4F3983ED4F3869577951C
:1006F0006795B795F795E7959F5FC1F7FE2B880F34
:10070000911D9695879597F90895A29FB001B39F83
:10071000C001A39F700D811D1124911DB29F700D0A
:0C072000811D1124911D0895F894FFCF55
:10072C0054454D5045524154555245203D3E004391
:02073C000000BB
:00000001FF
